:100000000C945D000C9485000C9485000C94850084
:100010000C9485000C9485000C9485000C9485004C
:100020000C9485000C9485000C9485000C9485003C
:100030000C9485000C9485000C9485000C9485002C
:100040000C9474040C9485000C9442040C941C04CD
:100050000C9485000C9485000C9485000C9485000C
:100060000C9485000C94850000000008000201003B
:100070000003040700000000000000000000000072
:10008000250028002B0000000000240027002A0083
:10009000040404040404040402020202020203032E
:1000A0000303030301020408102040800102040836
:1000B0001020010204081020BE0411241FBECFEF3F
:1000C000D8E0DEBFCDBF11E0A0E0B1E0ECE6F1E1A9
:1000D00002C005900D92A036B107D9F722E0A0E644
:1000E000B1E001C01D92A032B207E1F710E0CDE50A
:1000F000D0E004C02197FE010E94AE08CC35D107A4
:10010000C9F70E9409050C94B4080C94000090E013
:10011000FC01EC55FF4F249180579F4FFC018491C7
:10012000882399F090E0880F991FFC01EA57FF4F50
:10013000A591B491FC01E458FF4F859194918FB73C
:10014000F894EC91E22BEC938FBF0895AF92BF929D
:10015000CF92DF92EF92FF920F931F93CF93DF9393
:100160006C017B018B01040F151FEB015E01AE18C2
:10017000BF08C017D10759F06991D601ED91FC91E4
:100180000190F081E02DC6010995892B79F7C50111
:10019000DF91CF911F910F91FF90EF90DF90CF9063
:1001A000BF90AF900895FC01538D448D252F30E012
:1001B000842F90E0821B930B541710F0CF96089574
:1001C00001970895FC01918D828D981761F0A28DA1
:1001D000AE0FBF2FB11D5D968C91928D9F5F9F7367
:1001E000928F90E008958FEF9FEF0895FC01918D1D
:1001F000828D981731F0828DE80FF11D858D90E08A
:1002000008958FEF9FEF0895FC01918D228D892F26
:1002100090E0805C9F4F821B91098F73992708950E
:100220008BE691E00E94040121E0892B09F420E093
:10023000822F089580E090E0892B29F00E94100120
:1002400081110C9400000895FC01A48DA80FB92F12
:10025000B11DA35ABF4F2C91848D90E001968F73EE
:100260009927848FA689B7892C93A089B1898C910D
:10027000837080648C93938D848D981306C002885C
:10028000F389E02D80818F7D80830895EF92FF9226
:100290000F931F93CF93DF93EC0181E0888F9B8DA9
:1002A0008C8D98131AC0E889F989808185FF15C063
:1002B0009FB7F894EE89FF896083E889F989808186
:1002C0008370806480839FBF81E090E0DF91CF9155
:1002D0001F910F91FF90EF900895F62E0B8D10E077
:1002E0000F5F1F4F0F731127E02E8C8D8E110CC0E6
:1002F0000FB607FCFACFE889F989808185FFF5CF31
:10030000CE010E942401F1CFEB8DEC0FFD2FF11DEA
:10031000E35AFF4FF0829FB7F8940B8FEA89FB896D
:1003200080818062CFCFCF93DF93EC01888D8823CB
:10033000B9F0AA89BB89E889F9898C9185FD03C048
:10034000808186FD0DC00FB607FCF7CF8C9185FF2D
:10035000F2CF808185FFEDCFCE010E942401E9CF4D
:10036000DF91CF91089590E0FC01E859FF4F24916F
:10037000FC01EC55FF4F3491FC01E057FF4FE49135
:10038000EE23C9F0222339F0233001F1A8F4213003
:1003900019F1223029F1F0E0EE0FFF1FE458FF4F72
:1003A000A591B4918FB7F894EC91611126C0309566
:1003B0003E233C938FBF08952730A9F02830C9F021
:1003C000243049F7809180008F7D03C080918000A8
:1003D0008F7780938000DFCF84B58F7784BDDBCFAC
:1003E00084B58F7DFBCF8091B0008F778093B00074
:1003F000D2CF8091B0008F7DF9CF3E2BDACF8E30F7
:1004000008F08E508770806480937C0080917A0021
:10041000806480937A0080917A0086FDFCCF809181
:1004200078009091790008953FB7F8948091650124
:1004300090916601A0916701B091680126B5A89BD3
:1004400005C02F3F19F00196A11DB11D3FBFBA2F66
:10045000A92F982F8827BC01CD01620F711D811D26
:10046000911D42E0660F771F881F991F4A95D1F7AB
:1004700008958F929F92AF92BF92CF92DF92EF92A8
:10048000FF924B015C010E9414026B017C010E94EF
:1004900014026C197D098E099F09683E734081051D
:1004A0009105A8F321E0821A9108A108B10888EE0D
:1004B000C80E83E0D81EE11CF11C81149104A10434
:1004C000B10429F7FF90EF90DF90CF90BF90AF90ED
:1004D0009F908F900895089590E080E00895CF93C5
:1004E000DF93EC0160E08E810E94B30161E08E81B8
:1004F0000E94B30160E08E810E94B3018BE891E01D
:100500000197F1F7DF91CF910895CF92DF92EF92AB
:10051000FF920F931F93CF93DF936C017C0187E0D1
:10052000E80EF11CD0E0C0E0062F10E0B8010C2E60
:1005300002C0759567950A94E2F76170F7018191A1
:100540007F010E94B3012196C430D10579F7C6011D
:10055000DF91CF911F910F91FF90EF90DF90CF909F
:100560000C946F02CF92DF92EF92FF920F931F9342
:10057000CF93DF93EC01F62E642F8C810E94B301A0
:100580008D818F3F19F060E00E94B3010F2D10E0C4
:100590008F8584FF25C06E0187E0C80ED11CF12C29
:1005A000E12CB8010E2C02C0759567950A94E2F70C
:1005B0006170F60181916F010E94B301FFEFEF1AA4
:1005C000FF0A88E0E816F10461F7CE01DF91CF91D0
:1005D0001F910F91FF90EF90DF90CF900C946F02DE
:1005E000B80184E0759567958A95E1F7CE010E9480
:1005F00085026F2DCE01DF91CF911F910F91FF905A
:10060000EF90DF90CF900C94850240E0682F88E057
:1006100092E00C94B202CF93DF93613029F0909175
:10062000170298609093170260931B0210921C02AD
:1006300090E490931D0280931E02805C80931F02C1
:1006400080910C020E94870080910D028F3F11F073
:100650000E94870080910E020E948700C8E0D2E0CD
:100660009E01285032408091170284FD0AC084E028
:1006700090E02196281739073CF48E810E9487006C
:10068000EFCF88E090E0F5CF8BE39DE00197F1F7A5
:1006900060E080910C020E94B30160E080910E0244
:1006A0000E94B30180910D028F3F19F060E00E941B
:1006B000B3018091170284FD39C063E088E092E0C5
:1006C0000E948502CBE4D6E4CE010197F1F763E006
:1006D00088E092E00E9485022197F1F763E088E0CC
:1006E00092E00E94850283E592E00197F1F762E0D3
:1006F00088E092E00E9485028091170280620E9449
:10070000050384E0809318028CE00E94050381E0D9
:100710000E9405038BE39FE10197F1F782E080934C
:10072000190286E0DF91CF910C94050380620E944C
:1007300005038BE496E40197F1F78091170280623C
:100740000E94050383E592E00197F1F7809117027B
:1007500080620E940503D0CF90911B02691710F0B0
:100760006FEF690FE62FF0E0E85FFD4F9489890F86
:1007700080680C94050341E00E94B20281E090E0A1
:100780000895FB0101900020E9F73197AF01461B66
:10079000570BDC01ED91FC910280F381E02D09946F
:1007A0008F929F92AF92BF92EF92FF920F931F93FF
:1007B000CF93DF93CDB7DEB7A1970FB6F894DEBF26
:1007C0000FBECDBF7C01FA01CB0119A2223008F483
:1007D0002AE08E010F5D1F4F822E912CB12CA12C8F
:1007E000BF01A50194010E948C08F901CA016A3079
:1007F0000CF5605DD8016E938D01232B242B252BE6
:1008000079F790E080E0109721F0BD01C7010E94C8
:10081000C103A1960FB6F894DEBF0FBECDBFDF9126
:10082000CF911F910F91FF90EF90BF90AF909F904D
:100830008F900895695CDECF1F920F920FB60F92D2
:1008400011242F933F934F935F936F937F938F93D5
:100850009F93AF93BF93EF93FF938BE691E00E943A
:100860002401FF91EF91BF91AF919F918F917F9163
:100870006F915F914F913F912F910F900FBE0F900D
:100880001F9018951F920F920FB60F9211242F935D
:100890008F939F93EF93FF93E0917B01F0917C0105
:1008A0008081E0918101F091820182FD1BC09081E5
:1008B000809184018F5F8F7320918501821741F0B1
:1008C000E0918401F0E0E559FE4F958F809384011B
:1008D000FF91EF919F918F912F910F900FBE0F90ED
:1008E0001F9018958081F4CF1F920F920FB60F9230
:1008F00011242F933F938F939F93AF93BF93809136
:10090000610190916201A0916301B0916401309105
:10091000600123E0230F2D3758F50196A11DB11D6D
:10092000209360018093610190936201A093630121
:10093000B09364018091650190916601A091670177
:10094000B09168010196A11DB11D8093650190933E
:100950006601A0936701B0936801BF91AF919F9129
:100960008F913F912F910F900FBE0F901F90189570
:1009700026E8230F0296A11DB11DD2CFEBE6F1E0D0
:100980001382128288EE93E0A0E0B0E08483958326
:10099000A683B78384E091E09183808385EC90E027
:1009A0009587848784EC90E09787868780EC90E039
:1009B000918B808B81EC90E0938B828B82EC90E02A
:1009C000958B848B86EC90E0978B868B118E128EA4
:1009D000138E148EE8E0F2E01382128286E191E039
:1009E000918380838DE084838FEF85838CE0868381
:1009F0008BE087838AE0808789E0818788E082872F
:100A00001386148615861686178661E080E10C949D
:100A10000B03789484B5826084BD84B5816084BD05
:100A200085B5826085BD85B5816085BD80916E008C
:100A3000816080936E0010928100809181008260BD
:100A400080938100809181008160809381008091FA
:100A500080008160809380008091B10084608093E9
:100A6000B1008091B00081608093B00080917A00E5
:100A7000846080937A0080917A00826080937A000B
:100A800080917A00816080937A0080917A008068FA
:100A900080937A001092C100E0917B01F0917C017B
:100AA00082E08083E0917701F09178011082E091FB
:100AB0007901F0917A018FEC808310928301E091AB
:100AC0007F01F091800186E08083E0917D01F091CB
:100AD0007E01808180618083E0917D01F0917E01C3
:100AE000808188608083E0917D01F0917E0180812A
:100AF00080688083E0917D01F0917E0180818F7D0F
:100B0000808364E084E10E940B0360E080E00E9447
:100B1000AC036EE171E088E092E00E94C10361E005
:100B200080E00E94AC036EE271E088E092E00E94F7
:100B3000C10368EE73E080E090E00E94390281E03A
:100B40000E9405038BE39FE10197F1F7C0E0D0E03D
:100B50008EE00E94FF014C0190936A01809369012D
:100B60008EE00E94FF01BC01990F880B990B0E9437
:100B700065072AE038E240EA5BE30E941A0820E0B9
:100B800030E048EC52E40E941A086B017C01092C09
:100B9000000CAA08BB082AE0B501A401B7FE0DC0ED
:100BA0006DE28BE691E00E94460144275527BA0189
:100BB000481959096A097B092AE08BE691E00E94ED
:100BC000D00361E471E08BE691E00E94C10364E62A
:100BD00070E080E090E00E94390262E080E00E94D4
:100BE000AC0364E471E088E092E00E94C10363E03A
:100BF00080E00E94AC03A7019601C701B6010E94E4
:100C0000870862E571E081111AC046015701E89436
:100C1000B7F82FEF3FEF4FE75FE7C501B4010E9440
:100C2000870881112FC02FEF3FEF4FE75FE7C50126
:100C3000B4010E942F0718162CF566E571E088E0D4
:100C400092E00E94C10363E086E00E94AC0341E0B1
:100C50006FED88E092E00E94B20263E087E00E94BC
:100C6000AC036EE571E088E092E00E94C10320973A
:100C700009F46ECF0E941001882309F469CF0E9405
:100C8000000066CF2FEF3FEF4FE75FE4C701B601EB
:100C90000E94150818161CF46AE571E0D0CF2FEFFA
:100CA0003FEF4FE75FECC701B6010E942F0787FDBA
:100CB000F3CF20E030E0A901C701B6010E942F0761
:100CC00087FF0AC041E06DE288E092E00E94B20234
:100CD000F7FAF094F7F8F0942AE037ED43EA5BE393
:100CE000C701B6010E94C3064B015C010E94340794
:100CF0006B017C010E9463079B01AC01C501B4013B
:100D00000E94C2064B015C012AE0B701A60188E0FF
:100D100092E00E94D00341E06EE288E092E00E94FF
:100D2000B20220E030E040E251E4C501B4010E948B
:100D30001A084B015C010E9434076B01F12CE12C75
:100D40002AE0B701A60188E092E00E94D003C70123
:100D5000B6010E9463079B01AC01C501B4010E946A
:100D6000C20620E030E040E251E40E941A080E94EE
:100D70003407AB0170E060E02AE088E092E00E9476
:100D8000D00361CF5058BB27AA270E94DA060C94E3
:100D9000DB070E94CD0738F00E94D40720F039F419
:100DA0009F3F19F426F40C94CA070EF4E095E7FB74
:100DB0000C94C407E92F0E94EC0758F3BA17620796
:100DC00073078407950720F079F4A6F50C940E08B4
:100DD0000EF4E0950B2EBA2FA02D0B01B901900156
:100DE0000C01CA01A0011124FF27591B99F0593F9A
:100DF00050F4503E68F11A16F040A22F232F342FE2
:100E00004427585FF3CF469537952795A795F0402F
:100E10005395C9F77EF41F16BA0B620B730B840B44
:100E2000BAF09150A1F0FF0FBB1F661F771F881FFC
:100E3000C2F70EC0BA0F621F731F841F48F4879554
:100E400077956795B795F7959E3F08F0B0CF939546
:100E5000880F08F09927EE0F9795879508950E94BF
:100E6000A00708F481E008950E94F40788F09F57D6
:100E700098F0B92F9927B751B0F0E1F0660F771FBE
:100E8000881F991F1AF0BA95C9F714C0B13091F0B4
:100E90000E940E08B1E008950C940E08672F782F79
:100EA0008827B85F39F0B93FCCF386957795679579
:100EB000B395D9F73EF490958095709561957F4FE5
:100EC0008F4F9F4F0895E89409C097FB3EF490958B
:100ED0008095709561957F4F8F4F9F4F9923A9F013
:100EE000F92F96E9BB279395F695879577956795A2
:100EF000B795F111F8CFFAF4BB0F11F460FF1BC0E6
:100F00006F5F7F4F8F4F9F4F16C0882311F096E978
:100F100011C0772321F09EE8872F762F05C0662326
:100F200071F096E8862F70E060E02AF09A95660FDF
:100F3000771F881FDAF7880F9695879597F9089598
:100F4000990F0008550FAA0BE0E8FEEF16161706DA
:100F5000E807F907C0F012161306E407F50798F042
:100F6000621B730B840B950B39F40A2661F0232B5B
:100F7000242B252B21F408950A2609F4A140A695D7
:100F80008FEF811D811D089597F99F6780E870E0BC
:100F900060E008959FEF80EC089500240A941616EF
:100FA000170618060906089500240A941216130657
:100FB000140605060895092E0394000C11F48823E5
:100FC00052F0BB0F40F4BF2B11F460FF04C06F5F01
:100FD0007F4F8F4F9F4F089557FD9058440F551FD7
:100FE00059F05F3F71F04795880F97FB991F61F0AB
:100FF0009F3F79F087950895121613061406551F22
:10100000F2CF4695F1DF08C0161617061806991F8D
:10101000F1CF86957105610508940895E894BB2782
:1010200066277727CB0197F908950E94A00708F457
:101030008FEF08950E942D080C94DB070E94CD07C6
:1010400038F00E94D40720F0952311F00C94C407C7
:101050000C94CA0711240C940F080E94EC0770F33B
:10106000959FC1F3950F50E0551F629FF001729F4D
:10107000BB27F00DB11D639FAA27F00DB11DAA1F5C
:10108000649F6627B00DA11D661F829F2227B00DA9
:10109000A11D621F739FB00DA11D621F839FA00D34
:1010A000611D221F749F3327A00D611D231F849F84
:1010B000600D211D822F762F6A2F11249F575040DB
:1010C0009AF0F1F088234AF0EE0FFF1FBB1F661F56
:1010D000771F881F91505040A9F79E3F510580F01F
:1010E0000C94C4070C940F085F3FE4F3983ED4F3CC
:1010F000869577956795B795F795E7959F5FC1F7C3
:10110000FE2B880F911D9695879597F908950E945B
:10111000A007880B990B0895A1E21A2EAA1BBB1BEE
:10112000FD010DC0AA1FBB1FEE1FFF1FA217B307B3
:10113000E407F50720F0A21BB30BE40BF50B661FC9
:10114000771F881F991F1A9469F76095709580958D
:1011500090959B01AC01BD01CF010895EE0FFF1FDB
:0C1160000590F491E02D0994F894FFCF65
:10116C00000000004601A600D30093010401E20038
:10117C00F60000000000BB03A6006C026B024D6F72
:10118C006E69746F72696E6720537568750054656B
:10119C006C656B6F6D756E696B61736920504E4A2F
:1011AC00000D0A0053554855205255414E47414EAB
:1011BC003A006E616E00696E66006F7666004300E1
:00000001FF
